:100000000C9462000C948A000C948A000C948A0070
:100010000C948A000C948A000C948A000C948A0038
:100020000C948A000C948A000C948A000C94280486
:100030000C948A000C948A000C948A000C948A0018
:100040000C94DE030C948A000C94AC030C9486038D
:100050000C948A000C948A000C948A000C948A00F8
:100060000C948A000C948A000000000024002700F1
:100070002A0000000000250028002B0000000000DE
:1000800023002600290004040404040404040202DA
:100090000202020203030303030301020408102007
:1000A0004080010204081020010204081020000012
:1000B0000008000201000003040700000000000027
:1000C0000000E90411241FBECFEFD8E0DEBFCDBF92
:1000D00013E0A0E0B1E0ECEBF1E102C005900D927D
:1000E000AC3BB107D9F728E0ACEBB3E001C01D92FF
:1000F000A13FB207E1F710E0C2E6D0E004C02197CB
:10010000FE010E94D108C136D107C9F70E944705F8
:100110000C94DC080C940000AC019091EE089C302B
:1001200090F58091EF0828E830E0281B310987FD21
:100130003395220F331F220F331F4217530784F0CA
:100140008091F00828E532E0281B310987FD3395BE
:10015000220F331F220F331F421753070CF49A014B
:1001600022503109220F331F4FB7F894892F90E0A6
:10017000FC01EE0FFF1F8E0F9F1FFC01E753F74F8F
:10018000328321834FBF0895CF92DF92EF92FF9287
:100190000F931F93CF93DF936C017A018B01C0E023
:1001A000D0E0CE15DF0589F0D8016D918D01D60123
:1001B000ED91FC910190F081E02DC6010995892B0C
:1001C00011F47E0102C02196ECCFC701DF91CF91DF
:1001D0001F910F91FF90EF90DF90CF9008950895B9
:1001E00080E090E00895FC01538D448D252F30E090
:1001F000842F90E0821B930B541710F0CF96089534
:1002000001970895FC01918D828D981761F0828D80
:10021000DF01A80FB11D5D968C91928D9F5F9F733A
:10022000928F90E008958FEF9FEF0895FC01918DDC
:10023000828D981731F0828DE80FF11D858D90E049
:1002400008958FEF9FEF0895FC01918D228D892FE6
:1002500090E0805C9F4F821B91098F7399270895CE
:100260008CE298E00E94240121E0892B09F420E02F
:10027000822F0895FC01848DDF01A80FB11DA35AC0
:10028000BF4F2C91848D90E001968F739927848FB6
:10029000A689B7892C93A089B1898C9180648C93AD
:1002A000938D848D981306C00288F389E02D808198
:1002B0008F7D80830895EF92FF920F931F93CF93CA
:1002C000DF93EC0181E0888F9B8D8C8D981305C0A6
:1002D000E889F989808185FD24C0F62E0B8D10E018
:1002E0000F5F1F4F0F731127E02E8C8DE8120CC08B
:1002F0000FB607FCFACFE889F989808185FFF5CF31
:10030000CE010E943A01F1CF8B8DFE01E80FF11D65
:10031000E35AFF4FF0820B8FEA89FB89808180626C
:1003200007C0EE89FF896083E889F989808180644C
:10033000808381E090E0DF91CF911F910F91FF903A
:10034000EF900895CF93DF93EC01888D8823C9F057
:10035000EA89FB89808185FD05C0A889B9898C91CE
:1003600086FD0FC00FB607FCF5CF808185FFF2CF69
:10037000A889B9898C9185FFEDCFCE010E943A0101
:10038000E7CFDF91CF91089580E090E0892B29F0AD
:100390000E94300181110C9400000895833081F097
:1003A00028F4813099F08230A1F008958730A9F0C7
:1003B0008830B9F08430D1F4809180008F7D03C003
:1003C000809180008F7780938000089584B58F7727
:1003D00002C084B58F7D84BD08958091B0008F7771
:1003E00003C08091B0008F7D8093B0000895CF93BB
:1003F000DF93282F30E0F901E255FF4F8491F90196
:10040000E656FF4FD491F901EA57FF4FC491CC2330
:1004100091F081110E94CE01EC2FF0E0EE0FFF1F52
:10042000E458FF4FA591B491EC91ED2381E090E069
:1004300021F480E002C080E090E0DF91CF91089548
:100440001F93CF93DF93282F30E0F901E255FF4F40
:100450008491F901E656FF4FD491F901EA57FF4F15
:10046000C491CC23C9F0162F81110E94CE01EC2F2C
:10047000F0E0EE0FFF1FEE58FF4FA591B4918FB73C
:10048000F894111105C09C91ED2FE095E92302C06D
:10049000EC91ED2BEC938FBFDF91CF911F910895DD
:1004A000CF93DF9390E0FC01E656FF4F2491FC01CF
:1004B000EA57FF4F8491882361F190E0880F991FDC
:1004C000FC01E859FF4FC591D491FC01EE58FF4F54
:1004D000A591B491611109C09FB7F89488812095C6
:1004E00082238883EC912E230BC0623061F49FB786
:1004F000F8943881822F809583238883EC912E2B6A
:100500002C939FBF06C08FB7F894E8812E2B2883C9
:100510008FBFDF91CF9108953FB7F8948091C203C8
:100520009091C303A091C403B091C50326B5A89BC5
:1005300005C02F3F19F00196A11DB11D3FBFBA2F75
:10054000A92F982F8827820F911DA11DB11DBC01D5
:10055000CD0142E0660F771F881F991F4A95D1F79A
:1005600008958F929F92AF92BF92CF92DF92EF92B7
:10057000FF926B017C010E948C024B015C01C11453
:10058000D104E104F104F1F00E948C02DC01CB0102
:1005900088199909AA09BB09883E9340A105B105AC
:1005A00070F321E0C21AD108E108F10888EE880E44
:1005B00083E0981EA11CB11CC114D104E104F10414
:1005C00019F7DDCFFF90EF90DF90CF90BF90AF9005
:1005D0009F908F900895009769F0FC010190002092
:1005E000E9F73197AF01481B590BBC018CE298E049
:1005F0000C94C40080E090E00895CF93DF930E94B4
:10060000EB02EC0182E191E00E94EB028C0F9D1F56
:10061000DF91CF9108958F929F92AF92BF92CF9228
:10062000DF92EF92FF920F931F93CF93DF93CDB79B
:10063000DEB7A1970FB6F894DEBF0FBECDBF6B013A
:100640007C0197FF31C0E0912C08F0912D080190BA
:10065000F081E02D6DE28CE298E009958C01222773
:100660003327A9012C193D094E095F0919A2CE01B2
:1006700081967C019AE0892E912CA12CB12CCA0183
:10068000B901A50194010E94A308605DF70162937E
:100690007F01211531054105510589F7CF010E94E0
:1006A000EB02800F911F1DC09B01AC0119A28E01AE
:1006B0000F5D1F4F8AE0C82ED12CE12CF12CCA010E
:1006C000B901A70196010E94A308605DF801629339
:1006D0008F01211531054105510589F7CF010E9490
:1006E000EB02A1960FB6F894DEBF0FBECDBFDF912F
:1006F000CF911F910F91FF90EF90DF90CF90BF901F
:10070000AF909F908F9008950E94D7081F920F92EC
:100710000FB60F9211242F933F934F935F936F93D4
:100720007F938F939F93AF93BF93EF93FF938CE24D
:1007300098E00E943A01FF91EF91BF91AF919F9194
:100740008F917F916F915F914F913F912F910F907A
:100750000FBE0F901F9018951F920F920FB60F9219
:1007600011242F938F939F93EF93FF93E0913C0875
:10077000F0913D088081E0914208F091430882FDAC
:1007800012C09081809145088F5F8F732091460839
:10079000821751F0E0914508F0E0E45DF74F958F46
:1007A0008093450801C08081FF91EF919F918F91C7
:1007B0002F910F900FBE0F901F9018951F920F92C0
:1007C0000FB60F9211242F933F938F939F93AF9364
:1007D000BF938091BE039091BF03A091C003B091DD
:1007E000C1033091BD0323E0230F2D3720F4019680
:1007F000A11DB11D05C026E8230F0296A11DB11D44
:100800002093BD038093BE039093BF03A093C003C6
:10081000B093C1038091C2039091C303A091C4031C
:10082000B091C5030196A11DB11D8093C2039093A1
:10083000C303A093C403B093C503BF91AF919F912D
:100840008F913F912F910F900FBE0F901F90189591
:100850001F920F920FB60F9211242F933F934F9335
:100860005F936F937F938F939F93AF93BF93EF9318
:10087000FF938091BC0387FF05C010928500109202
:1008800084001BC02091BC03022E000C330B80910E
:10089000ED0890E02817390784F48091BC03082EF6
:1008A000000C990BFC01EE0FFF1F8E0F9F1FFC0128
:1008B000E753F74F808186FD15C08091BC038F5FA1
:1008C0008093BC032091BC03022E000C330B80915B
:1008D000ED0890E028173907C4F48091BC038C30F0
:1008E00064F113C08091BC03082E000C990BFC012D
:1008F000EE0FFF1F8E0F9F1FFC01E753F74F808104
:1009000060E08F730E942002D8CF80918400909184
:100910008500049680349C4918F480E49CE905C065
:100920008091840090918500049690938900809333
:1009300088008FEF8093BC033BC0209184003091EE
:1009400085008091BC03082E000C990BFC01EE0F72
:10095000FF1F8E0F9F1FFC01E753F74F818192818C
:10096000820F931F90938900809388008091BC032D
:10097000082E000C990BFC01EE0FFF1F8E0F9F1F1E
:10098000FC01E753F74F808186FF12C08091BC03C2
:10099000082E000C990BFC01EE0FFF1F8E0F9F1FFE
:1009A000FC01E753F74F808161E08F730E942002C2
:1009B000FF91EF91BF91AF919F918F917F916F9137
:1009C0005F914F913F912F910F900FBE0F901F900D
:1009D000189510922F0810922E0888EE93E0A0E050
:1009E000B0E08093300890933108A0933208B09320
:1009F000330884E091E090932D0880932C0885ECD7
:100A000090E0909339088093380884EC90E09093BC
:100A10003B0880933A0880EC90E090933D088093E7
:100A20003C0881EC90E090933F0880933E0882EC74
:100A300090E0909341088093400886EC90E090937A
:100A4000430880934208109245081092460810927D
:100A50004708109248088091ED088C30A0F491E08E
:100A6000980F9093ED088093EE0890E0FC01EE0F54
:100A7000FF1F8E0F9F1FFC01E753F74F88EB9BE092
:100A80009283818308958FEF8093EE080895789480
:100A900084B5826084BD84B5816084BD85B5826083
:100AA00085BD85B5816085BD80916E008160809334
:100AB0006E0010928100809181008260809381009D
:100AC00080918100816080938100809180008160AD
:100AD000809380008091B10084608093B100809108
:100AE000B00081608093B00080917A008460809330
:100AF0007A0080917A00826080937A0080917A00F7
:100B0000816080937A0080917A00806880937A0077
:100B10001092C10081E080932A0880932908809375
:100B200028088093C7038093C60310920008109290
:100B30000108109202081092030810920408109203
:100B400005081092060810920708109208081092E3
:100B5000090810920A0810920B0810920C081092C3
:100B60000D0810920E0810920F08109210081092A3
:100B7000110810921208109213088091EE088C3020
:100B800008F051C061E08BE00E9450028091EE08B5
:100B9000E82FF0E09F01220F331FE20FF31FE7530E
:100BA000F74F9081907C9B6090831092EF08109299
:100BB000F0086CE00E94C5089CE0899FB0011124F8
:100BC00040E050E09A01260F371FF901EE0FFF1F9A
:100BD0002E0F3F1FF901E753F74F908196FD16C086
:100BE0004F5F5F4F4C30510569F781110FC0109274
:100BF000800082E080938100109285001092840032
:100C0000B19A80916F00826080936F00E091EE084E
:100C1000F0E0CF01880F991FE80FF91FE753F74F56
:100C2000808180648083E0913C08F0913D0882E0FF
:100C30008083E0913808F09139081082E0913A08F9
:100C4000F0913B088FEC808310924408E0914008BB
:100C5000F091410886E08083E0913E08F0913F08E2
:100C6000808180618083E0913E08F0913F0880811F
:100C700088608083E0913E08F0913F088081806821
:100C80008083E0913E08F0913F0880818F7D8083D2
:100C900062E082E00E94500262E084E00E94500222
:100CA00062E087E00E94500262E08AE00E94500207
:100CB00061E08DE00E94500285E191E00E94FD021A
:100CC0008CE491E00E94FD028DE591E00E94FD021E
:100CD00085E191E00E94FD0281E991E00E94FD0220
:100CE00011E05CE3852E912CA12CB12C87E00E94B1
:100CF000F701892B29F580912B088F5F833018F439
:100D000080932B0802C010922B0880912B08811130
:100D100003C082EA91E00CC0813019F482EC91E0CA
:100D200007C0823019F48AEE91E002C08FE092E0B1
:100D30000E94FD0268EE73E080E090E00E94B10244
:100D400080912B08813099F018F0823029F11AC077
:100D50008AE00E94F701892B29F488EE93E00E9433
:100D60008C00F6CF84EF91E00E948C0015C082E0E9
:100D70000E94F701892B99F484E00E94F701892BE6
:100D8000D9F00DC080912A08882331F08BE893E0D8
:100D90000E94FD0210922A080E94C401A7CF10935E
:100DA000290882E00E94F701892B79F484E00E94EF
:100DB000F701019751F415C080912908882361F348
:100DC00085E492E00E94FD02E7CF82E00E94F701F5
:100DD000019711F784E00E94F701892B09F4D3C031
:100DE000DBCF809128088823F9F08CE792E00E94FD
:100DF000FD021092280818C0809100089091010807
:100E0000A0910208B09103080196A11DB11D809325
:100E1000000890930108A0930208B09303088AE0A9
:100E20000E94F701892BF1F08AE00E94F7010197F7
:100E3000C9F4E2CF8091040890910508A0910608BA
:100E4000B09107080196A11DB11D809304089093ED
:100E50000508A0930608B09307088AE00E94F701EE
:100E6000019729F08AE00E94F701892B19F38091FC
:100E7000080890910908A0910A08B0910B08EC01AC
:100E8000CC0FDD1FCC0FDD1FFE01EC51FA4F7F01AF
:100E90006091000870910108809102089091030808
:100EA000A50194010E948408F701208331834283C5
:100EB0005383C853DC4F60910408709105088091FA
:100EC000060890910708A50194010E9484082883D0
:100ED00039834A835B8389E992E00E94EB02609147
:100EE0000008709101088091020890910308A50103
:100EF00094010E948408CA01B9010E940B0385EB8A
:100F000092E00E94EB0260910408709105088091C4
:100F1000060890910708A50194010E948408CA015F
:100F2000B9010E940B0382E191E00E94EB02109252
:100F30000008109201081092020810920308109203
:100F40000408109205081092060810920708809174
:100F5000080890910908A0910A08B0910B08019621
:100F6000A11DB11D8093080890930908A0930A0859
:100F7000B0930B0882E00E94F701892B09F454CF4B
:100F80001093280809CF8091C703882311F18DEBB6
:100F900092E00E94EB02609108087091090880912C
:100FA0000A0890910B080E940B038BEC92E00E94C0
:100FB000EB0265E070E080E090E00E940B038EEEB3
:100FC00092E00E94EB0282E191E00E94EB0210921B
:100FD000C70368E873E180E090E00E94B10288EF07
:100FE00092E00E94FD02C0901008D0901108E0909D
:100FF0001208F09013088091080890910908A091B8
:101000000A08B0910B08C816D906EA06FB060CF0D0
:101010005AC088EE93E00E948C00C601880F991F89
:10102000880F991FFC01EC51FA4FC080D180E280FB
:10103000F380C701B6010E94B102C701B6010E9448
:101040000B0382E191E00E94EB0284EF91E00E94A9
:101050008C008091100890911108A0911208B09115
:101060001308EC01CC0FDD1FCC0FDD1FFE01E85390
:10107000FC4F60817181828193810E94B102CC51C9
:10108000DA4F688179818A819B810E940B0382E11A
:1010900091E00E94EB0284EF91E00E948C0080912D
:1010A000100890911108A0911208B09113080196B0
:1010B000A11DB11D8093100890931108A0931208F0
:1010C000B093130890CF85E193E00E94FD0283E383
:1010D00093E00E94FD028091C603882309F45CCE50
:1010E00084E00E94F701019749F46CE271E080E02E
:1010F00090E00E94B1021092C6034ECE8AE00E9498
:10110000F701892B41F76BCF052E97FB1EF4009456
:101110000E949B0857FD07D00E94A30807FC03D03C
:101120004EF40C949B0850954095309521953F4F77
:101130004F4F5F4F089590958095709561957F4FC3
:101140008F4F9F4F0895A1E21A2EAA1BBB1BFD01D2
:101150000DC0AA1FBB1FEE1FFF1FA217B307E40796
:10116000F50720F0A21BB30BE40BF50B661F771FEE
:10117000881F991F1A9469F76095709580959095CE
:101180009B01AC01BD01CF010895991B79E004C01A
:10119000991F961708F0961B881F7A95C9F78095B6
:1011A0000895EE0FFF1F0590F491E02D099481E062
:0C11B00090E0F8940C94DC08F894FFCF59
:1011BC00000000005B01C400F300A2012401020145
:1011CC0016010D0A003D3D3D3D3D3D3D3D3D3D3D46
:1011DC003D3D3D3D3D3D3D3D3D3D3D3D3D3D3D3D33
:1011EC003D3D3D3D3D3D3D3D3D3D3D3D3D3D3D3D23
:1011FC003D3D3D3D3D3D3D3D3D3D3D004175746FAB
:10120C002D546170732064657669636500436F705B
:10121C007972696768742050414E43484F373533B3
:10122C0032202D205037436F6D756E696361746980
:10123C006F6E73204C544420532E41203230313881
:10124C00005B494E464F5D202D205374616E6462E5
:10125C0079005B494E464F5D202D2052656D6F74B1
:10126C0065206D6F646520656E61626C656421211B
:10127C0021005B494E464F5D202D205265636F72F5
:10128C0064696E672F506C6179206D6F64652065A1
:10129C006E61626C6564212121005B494E464F5D95
:1012AC00202D2043616C6962726174696F6E206DD0
:1012BC006F646520656E61626C6564212121005B41
:1012CC004552524F525D202D20416E206572726F37
:1012DC0072206F637572726564207768696C652023
:1012EC00737769746368696E6720746865206D6FC5
:1012FC006465732E005B4552524F525D202D205079
:10130C006C65617365206C65617665206F6E652018
:10131C00737769746368206F6E2E20285265636F33
:10132C007264206F7220506C617929005B524543C6
:10133C005D202D205265636F7264696E6720737433
:10134C006172746564212121005B5245435D202D3F
:10135C0020546170207265636F7264656421205043
:10136C0052533A200020505253323A20005B504CDA
:10137C0041595D202D205468652000207265636FF3
:10138C007264656420746170732077696C6C206280
:10139C006520706C6179656420696E3A2000207359
:1013AC0065636F6E64732E005B504C41595D202D4C
:1013BC0020506C6179696E672073657175656E6319
:1013CC00652E2E2E005B504C41595D202D2053650F
:1013DC007175656E63652066696E697368656421F5
:1013EC002121005B504C41595D202D20466F72200D
:1013FC007265706C617920746865207365717565B0
:10140C006E63652070726573732050554C53452C78
:10141C00207475726E206F6620504C415920746F89
:10142C00206578697420616E642064656C657465F0
:10143C002073657175656E63652E005B4552524F66
:10144C00525D202D20496E76616C6964206D6F644D
:10145C00652064657465637465642C207265626FC5
:0C146C006F742061726475696E6F21005E
:00000001FF
